:020000040800F2
:10000000C004002001010008E3160008D71500080D
:10001000E116000855020008B51A000800000000AB
:10002000000000000000000000000000E7160008CB
:100030005702000800000000E5160008E916000855
:100040001B0100081B0100081B0100081B01000820
:100050001B0100081B0100081B0100081B01000810
:100060001B0100081B0100081B0100081B01000800
:100070001B0100081B0100081B0100081B010008F0
:100080001B0100081B0100081B0100081B010008E0
:100090001B0100081B0100081B0100081B010008D0
:1000A0001B0100081B0100081B0100081B010008C0
:1000B0001B0100081B0100081B0100081B010008B0
:1000C0001B0100081B0100081B0100081B010008A0
:1000D0001B010008A91A00081B0100081B010008E9
:1000E0001B0100081B0100081B010008DFF80CD0F1
:1000F00000F040F800480047991C0008C0040020A8
:100100000648804706480047FEE7FEE7FEE7FEE7B1
:10011000FEE7FEE7FEE7FEE7FEE7FEE74917000819
:10012000ED000008D2B201E000F8012B491EFBD21D
:1001300070470022F6E710B513460A4604461946F2
:10014000FFF7F0FF204610BD30B50B4601460020FA
:100150002022012409E021FA02F59D4205D303FA89
:1001600002F5491B04FA02F52844151EA2F101020A
:10017000F1DC30BD064C074D06E0E06840F00103BD
:1001800094E8070098471034AC42F6D3FFF7B2FF6B
:10019000581D0008781D000870B504460068816885
:1001A000C943C9071CD1816821F00101816000F0B9
:1001B000E3FB05460FE000BF00F0DEFB401B02281A
:1001C00009D9A06A40F01000A062E06A40F0010086
:1001D000E062012070BD20688068C043C007EBD09A
:1001E000002070BDF8B500260446009600688168BE
:1001F000C943C90728D0816841F0010181601348D3
:1002000013490068B0FBF1F000E0401E00900028A8
:10021000FBD100F0B1FB054611E000BF00F0ACFBE4
:10022000401B02280BD9A06A40F01000A062E06ACF
:1002300040F00100E06284F824600120F8BD2068ED
:100240008068C043C007E9D10020F8BD0C00002041
:1002500040420F00FEE77047F8B50024009490F884
:1002600024202546012A12D0012280F824204A6841
:100270001F23072A0DD20668776B521E02EB8202FB
:1002800093409F430B6893401F43776319E002201C
:10029000F8BD06680D2A0AD2376BD21F02EB820224
:1002A00093409F430B6893401F43376309E0F76A0D
:1002B0000D3A02EB820293409F430B6893401F4329
:1002C000F7620A68072306680A2A0AD3F7680A3A17
:1002D00002EB420293409F438B6893401F43F760B9
:1002E00008E0376902EB420293409F438B689340DA
:1002F0001F4337610A68102A01D0112A20D1124BFE
:1003000002689A4217D193681B0219D4936843F488
:10031000000393600968102912D10C490C4A09683E
:10032000B1FBF2F101EB8101490000E0491E0091AF
:100330000029FBD104E0816A41F02001816201249F
:1003400080F824502046F8BD002401400C00002015
:1003500040420F000068C06C704700002DE9F0417A
:100360004FF0000704003D467ED0A06A002628B961
:10037000E66284F82460204600F07EF82046FFF70D
:100380000BFFA16AC90600D420B1A06A40F010009A
:10039000A06269E0A16A21F4885141F00201A162E2
:1003A0006268E169237B0A4347EA43010A43A16883
:1003B0004FF48077B94209D0012907D05FF00001DE
:1003C00094F814C0BCF1010F02D00AE03946F7E7F7
:1003D000F3B1A36A43F02003A362E36A43F001038D
:1003E000E3622368D3F804C02CF4694C4CEA010C96
:1003F000C3F804C021688B68DFF870C003EA0C03FF
:1004000013438B60A168B9420BD0012909D00CE0DD
:10041000DFF85CC0A3690CEB43330B4343F400618A
:10042000DFE7218A0D05A5F580152168CB6A23F445
:1004300070032B43CB62216889680E4B19409142AF
:1004400008D1E662A16A21F0020141F00101A16236
:10045000BDE8F081A06A20F0020040F01000A06228
:10046000E06A40F00100E0620120F1E7FDF7E1FF02
:1004700000E0FFFFFE0E1FFF00B585B000210091D8
:1004800001910291039100680E49884218D10E48EB
:10049000816941F400718161816901F40071049105
:1004A000816941F0040181618069694600F00400BE
:1004B00004900220009003200190044800F066F9A7
:1004C00005B000BD002401400010024000080140BA
:1004D0002DE9F84300260D460446009600F04CFA3C
:1004E000804620688168C90508D5A06A40F02000D0
:1004F000A06284F824600120BDE8F8834168C90542
:1005000003D4C06A10F4700F26D0022000F0D2FA93
:1005100038490968B1FBF0F72068036936490B4296
:100520004FEA61014FEAA1121BD1C3684FEA611C77
:1005300013EA0C0F15D103690B4221D1C068104298
:100540001ED114201FE0681C06D045B300F014FA39
:10055000A0EB0800A84222D8206800688007F2D5E6
:100560002AE003690B4202D1C168114206D0026938
:1005700022490A4206D1C068084203D1542002E051
:10058000292000E0FC204743009813E0681C0ED0AF
:100590002DB100F0F1F9A0EB0800A84207D9A06A3C
:1005A00040F00400A06284F824600320A4E70098CF
:1005B000401C0090B842E9D321686FF01200086037
:1005C000A06A40F40070A06220688068C0F34240D6
:1005D00007280CD1207B50B9A06A20F48070A0625B
:1005E000A06AC00403D4A06A40F00100A062002009
:1005F00082E700000C000020244992244992240044
:1006000070B5044690F8240001280DD0012084F82C
:1006100024002046FFF7E6FD02004FF0000005D061
:1006200084F82400104670BD022070BDA16A40F21B
:100630000123994341F48071A1621F4D23681F4932
:10064000AB4218D10E6816F4702F14D0A66A46F487
:100650008016A6620E68760505D5A66A26F40056B1
:1006600046F48056A662A66AF6040AD5E66A26F023
:100670000606E66206E0A66A26F48016A6625E68B2
:10068000E9E7E06284F824006FF002001860206857
:100690008368C3F34243072B05D1A84208D10968F8
:1006A00011F4702F04D0816841F480118160B9E7A2
:1006B000816841F4A001F9E70028014004240140C9
:1006C00010B5044690F82400012807D0012084F8D2
:1006D00024002046FFF760FD10B107E0022010BDA6
:1006E000A16A21F4885141F00101A162002184F83E
:1006F000241010BD10B590F821100024022903D059
:100700000421816301243DE001680A6822F00E02A1
:100710000A6001680A6822F001020A601A4A016848
:10072000914201D1012121E0174A1432914201D1B5
:1007300010211BE0144A2832914201D1891515E09D
:10074000114A3C32914201D189140FE00E4A5032D5
:10075000914202D14FF4803108E00B4A6432914259
:1007600002D14FF4801101E04FF08071064A083A3F
:100770005160012180F82110002180F82010416B88
:1007800001B18847204610BD080002402DE9F84F0E
:10079000DFF8B891002409F1040A0AF1040B23469A
:1007A0000F270BF1040EC9E00125A5402A40AA42FB
:1007B0007DD1674ED1F804C0ACEB0608B44532D009
:1007C00014DCBCF1030F3AD009DCBCF1000F2AD0D5
:1007D000BCF1010F1CD0BCF1020F31D11DE0BCF106
:1007E000110F17D0BCF1120F2AD119E0B8F5881FEC
:1007F00019D006DCB8F5803F15D0B8F5801F1FD1A1
:1008000011E0B8F5001F0ED0B8F5041F18D10AE0AA
:10081000CB6815E0CB681B1D12E0CB6808330FE0F6
:10082000CB680C330CE08B682BB1012B4FF0080325
:1008300003D0456104E0042302E0056100E00023E9
:10084000FF2A01D8064601E000F104064FEA8405BC
:1008500001D9A5F12005D6F8008007FA05FC28EAA1
:100860000C0803FA05F548EA0508C6F800804D684B
:10087000ED0062D5374DAE6946F00106AE61AD6957
:1008800024F0030605F001050095334D06EB050C39
:10089000DCF80850A607360F07FA06F825EA08051F
:1008A000DFF8B880404503D14FF0000817E044E07E
:1008B000DFF8AC80404502D14FF001080FE0DFF8CF
:1008C000A480404502D14FF0020808E0DFF898808C
:1008D000404502D14FF0030801E04FF0040808FA48
:1008E00006F848EA0508CCF808804D68D9F8006099
:1008F000ED034D4601D5164300E096432E604D684A
:10090000DAF80060AD03554601D5164300E0964382
:100910002E604D68DBF80060ED025D4601D51643A0
:1009200000E096432E604D68DEF80060AD0275462B
:1009300001D5164300E096432E60641C0D682A46DC
:10094000E5407FF431AFBDE8F88F000000040140BE
:10095000000011100010024000000140000801409A
:10096000000C014000100140001401400AB1016177
:1009700070470904FBE700000148806870470000E9
:1009800000000020024881680278114481607047AD
:1009900000000020074810B5016841F01001016017
:1009A000032000F075F8002000F006F800F024F8AD
:1009B000002010BD0020024070B50D4D04464FF4DC
:1009C0007A712878B1FBF0F00A490968B1FBF0F0C0
:1009D00000F0C6FB48B9102C07D200222146501E59
:1009E00000F036F800206C6070BD012070BD000082
:1009F000000000200C0000200C4808B5816941F07F
:100A000001018161816901F001010091C16941F039
:100A10008051C161C06900F0805000900448416875
:100A200021F0E06141F00071416008BD001002401A
:100A300000000140002809DB00F01F020121914065
:100A40004009800000F1E020C0F80011704700006C
:100A5000F0B40E4B1B680C46C3F30223C3F1070529
:100A6000042D00D90425191D072901D2002300E017
:100A7000DB1E012606FA05F1491E214099409E40E1
:100A8000761E16403143F0BC01F02AB80CED00E0B0
:100A9000064900F0070208684FF6FF03184040EAD5
:100AA0000220034A10430860704700000CED00E08C
:100AB0000000FA0510B529A401461DCC86B08DE8CA
:100AC0001D002AA02A4C006804900020012923D090
:100AD00002293AD010291DD161682268D20119D5A6
:100AE000C1F38342C9031DF8020009D5616804AA55
:100AF000C1F34041515C1F4AB2FBF1F1484301E0B0
:100B00001D4948436168490204D440005FF0030175
:100B1000B0FBF1F006B010BD226AC2F30121012939
:100B200003D1920701D5C803F4E7022905D1626A0F
:100B3000920702D549F64040ECE70329EAD1216843
:100B40008903E7D54FF22440E4E700F033F9616808
:100B5000C1F38131491C4900DAE7000002030405B2
:100B6000060708090A0B0C0D0E0F101001020000F9
:100B70000010024000127A0000093D002DE9F84300
:100B800005460078354CC00754D0E0690026C00007
:100B900008D4E06940F08050E061E069012600F08F
:100BA000805000902E480168C90512D40168804623
:100BB00041F480710160FFF7DFFE074605E000BFEA
:100BC000FFF7DAFEC01B642823D8D8F80000C00560
:100BD000F6D5206A10F4407021D0A98801F4407144
:100BE00081421CD0206A1F49012220F440700A6013
:100BF00000220A602062C00711D0FFF7BDFE074641
:100C000041F2883808E000BFFFF7B6FEC11B41453E
:100C100002D90320BDE8F883206A8007F4D5206A52
:100C2000696820F44070084320621EB1E06920F03A
:100C30008050E0612878800705D56068A96820F4B5
:100C40004040084360602878C00605D56068E968C0
:100C500020F48000084360600020DBE700100240C1
:100C600000700040400442422DE9F0470F46050065
:100C700061D0434E306800F00700B84209D23068B6
:100C800020F0070038433060306800F00700B842B9
:100C900051D128683B4C810712D5400703D56068C5
:100CA00040F4E06060602878000703D5606840F495
:100CB000605060606068A96820F0F00008436060E0
:100CC0002878C00728D06868012810D02168022839
:100CD00010D0890700292EDA616821F00301014351
:100CE0006160FFF749FE804641F288390DE02168D6
:100CF0008903EFE78901EDE7FFF73EFEA0EB08016E
:100D0000494502D90320BDE8F0876068696800F0B2
:100D10000C00B0EB810FEFD1306800F00700B84253
:100D20000BD9306820F0070038433060306800F09D
:100D30000700B84201D00120E5E72878400705D533
:100D40006068E96820F4E060084360602878000784
:100D500006D56068296920F4605040EAC1006060EF
:100D600000F038F86168084AC1F30311515CC840CB
:100D70000649086006480068FFF71EFE0020C2E72B
:100D80000020024000100240401D00080C0000201E
:100D9000040000200448054900684968044AC1F37A
:100DA0000221515CC84070470C0000200010024036
:100DB000501D00080448054900684968044AC1F309
:100DC000C221515CC84070470C0000200010024056
:100DD000501D000812A185B00FC98DE80F0014A0A6
:100DE000144A006804905168134801F00C03042B66
:100DF00010D0082B0ED1C1F38343C9031DF80300A3
:100E00000AD5516804AAC1F34041515C0A4A5043D3
:100E1000B0FBF1F005B0704708494843FAE700001D
:100E200002030405060708090A0B0C0D0E0F10102B
:100E3000010200000010024000127A0000093D008B
:100E40002DE9F84F040070D02078C04DC00749D07C
:100E50006868C0F38100012807D06868C0F381008A
:100E6000022809D16868C00306D52868800339D5EF
:100E700060680028E7D035E06068B0F5803F0BD0AF
:100E800010B1B0F5A02F11D0286820F48030286070
:100E9000286820F4802002E0286840F48030286030
:100EA000606890B1FFF768FD06460AE0286840F4E4
:100EB00080202860F0E700BFFFF75EFD801B6428FC
:100EC00073D828688003F7D50CE0FFF755FD064678
:100ED00005E000BFFFF750FD801B6428F0D82868AC
:100EE0008003F7D420789A4E80074FF001094FF025
:100EF000000839D5686810F00C0F07D06868C0F397
:100F00008100022809D16868C00306D428688007D8
:100F100014D52069012808D110E02069B0B1C6F8C5
:100F20000090FFF729FD074605E00AE1FFF724FDE1
:100F3000C01B0228C4D828688007F7D528686169D3
:100F400020F0F80040EAC10028600DE0C6F80080FB
:100F5000FFF712FD074604E0FFF70EFDC01B022855
:100F600023D828688007F7D4207800072CD5794843
:100F7000A169D9B1C0F80090FFF7FEFC074604E074
:100F8000FFF7FAFCC01B02280FD8686A8007F7D564
:100F900071484FF4FA510068B0FBF1F0009000BFC7
:100FA0000098411E0091FAD20EE080E0C0F8008067
:100FB000FFF7E2FC074604E0FFF7DEFCC01B022857
:100FC00075D8686A8007F7D42078400760D5E8694B
:100FD0000027C00008D4E86940F08050E861E86963
:100FE000012700F0805000905C480168C90513D4C7
:100FF0000168834641F480710160FFF7BDFC8246C1
:1010000006E000BFFFF7B8FCA0EB0A0064284ED84A
:10101000DBF80000C005F5D5E06801280AD008B16A
:10102000052813D0286A20F001002862286A20F0E1
:10103000040002E0286A40F001002862E06841F202
:10104000883B98B1FFF798FC82460BE0286A40F095
:1010500004002862EEE700BFFFF78EFCA0EB0A0158
:1010600059455AD8286A8007F6D50CE0FFF784FC6A
:10107000824605E0FFF780FCA0EB0A0159454CD8F9
:10108000286A8007F6D41FB1E86920F08050E86133
:10109000E06988B36968C1F38101022944D002285C
:1010A000C6F8608004D0FFF767FC044638E034E0FF
:1010B000FFF762FC074604E0FFF75EFCC01B022856
:1010C0002BD828688001F7D4206AB0F5803F05D17D
:1010D0006868A16820F4003008436860D4E908011A
:1010E0000843696821F4741108436860C6F8609089
:1010F000FFF742FC044606E025E000BFFFF73CFC9A
:10110000001B022809D828688001F7D51BE000BF22
:10111000FFF732FC001B022802D90320BDE8F88F3C
:1011200028688001F4D40EE00128F7D06868226AAC
:1011300000F48031914204D1616A00F47010884259
:1011400001D00120EAE70020E8E70000001002409B
:1011500000004242800442420C0000200070004027
:1011600010B5401EB0F1807F01D3012010BD4FF0BB
:10117000E02460610F21601700F0B2FC0020A06144
:1011800007202061002010BD70B590F83C20012A96
:1011900019D0012400F83C4F0222427050F83C3C28
:1011A0005A689D6822F070060A684968324325F043
:1011B000800529435A6050F83C2C9160447000210E
:1011C0000170084670BD022070BD10B5040003D048
:1011D00094F83D0010B107E0012010BD002084F814
:1011E0003C00204600F00CF8022084F83D00211D50
:1011F000206800F0CDFA012084F83D00002010BDE9
:1012000008B500680649884208D10648816941F45A
:1012100000618161806900F40060009008BD0000F9
:10122000002C014000100240022180F83D100168AE
:101230008A6802F00702062A03D00A6842F0010217
:101240000A60012180F83D100020704770B5044607
:1012500090F83C00012817D0012584F83C5002206A
:1012600084F83D002068826822F0770222F47F42F1
:1012700082600868502830D00DDC20284DD005DC75
:1012800098B310283BD148E0022070BD302844D0EC
:10129000402834D139E0602828D0702806D0B0F535
:1012A000805F2CD0B0F5005F29D10AE0CB68D1E98E
:1012B0000121206800F0A2FA2068816841F07701DE
:1012C00009E0CB68D1E90121206800F097FA206895
:1012D000816841F48041816011E0CA6849682068F2
:1012E00000F09EFA5021206807E016E0CA684968BD
:1012F000206800F0A6FA6021206800F089FA84F8DE
:101300003D50002084F83C0070BDCA6849682068E0
:1013100000F086FA40212068EFE722680146104677
:10132000EBE7704770B5026804461068D1685369EE
:1013300010F00F0F50D003F0010501F49076354303
:101340005DD0C20705D0CA0503D5E26B42F00102A9
:10135000E263420705D5DA0703D0E26B42F00202EE
:10136000E263820705D5DA0703D0E26B42F004029C
:10137000E263020705D5DA0703D0E26B42F0080208
:10138000E263E26B002A33D0800604D5880602D5DA
:10139000204600F07EFA20684069E16BC0F38010BF
:1013A000090700D428B3204600F065FA2068416997
:1013B00049061AD5416921F040014161606BA0B135
:1013C0001B494163606BFFF795F9002810D0606BF3
:1013D000416BBDE870400847830610D58B060ED5DB
:1013E0002046BDE8704000F054BA2046FFF799FF50
:1013F00070BD2046FFF795FF0020E06370BD030637
:1014000006D50B0604D52046BDE8704000F0E8BACA
:101410004006F3D54806F1D5D168204621F04001B9
:10142000D160202184F8391000F0D4F870BD00009C
:101430006718000870B5040004D094F8390000253E
:1014400010B106E0012070BD84F83850204600F04D
:1014500023F8242084F839002068C16821F4005161
:10146000C160204600F060FA2068016921F49041D3
:1014700001612068416921F02A0141612068C16849
:1014800041F40051C160E563202084F8390084F8FC
:101490003A00002070BD000030B585B000240094F3
:1014A0000194029403940068184988422CD118488A
:1014B000816941F480418161816901F48041049135
:1014C000816941F0040181618069124D00F00400DE
:1014D00004904FF4007000900220019003200390CC
:1014E00069462846FFF752F92815CDE900046946F8
:1014F00028460294FFF74AF9002211462520FFF7FB
:10150000A7FA2520FFF796FA05B030BD0038014054
:10151000001002400008014070472DE9F8430446DE
:1015200090F839001F4616460D46202850D1A5B127
:101530009EB194F8380001284AD0012084F8380080
:101540004FF00008C4F83C80212084F83900FFF7F0
:1015500013FAA6848146E68426E00120BDE8F883DC
:10156000E08C401EE084A0684B46B0F5805F4FF0F1
:1015700000024FF080012046009703D000F061FA8E
:10158000E8B90DE000F05DFAC8B928882168C0F319
:1015900008004860206908B16D1C05E0AD1C03E03F
:1015A000216815F8010B4860E08C0028D8D14B4623
:1015B000002240212046009700F043FA08B10320A2
:1015C000CCE7202084F8390084F838800020C5E773
:1015D0000220C3E77047FEE73EB500250D480095A1
:1015E000019502950A49856001600573057501241E
:1015F00045604FF460210461C161FEF7AFFE0094C5
:1016000069460448CDE90145FEF726FE3EBD0000CF
:101610000024014010000020F0B585B000241848D7
:101620000094019402940394816941F00401816162
:10163000816901F004010491816941F0080181612F
:101640008069104F00F008004FF48056049000228B
:1016500031463846FFF78AF902250320CDE90050CC
:1016600069460948FFF792F801AA0120009682E82E
:10167000310069463846FFF789F805B0F0BD000033
:1016800000100240000C01400008014010B586B077
:1016900000241248009401940294039404940E4987
:1016A000059401600721C0E901144FF6FE71C0E9FD
:1016B000031444618461FFF788FD4FF4805000906B
:1016C00069460648FFF7C2FD049404A9034805943F
:1016D000FFF75AFD06B010BD002C0140400000206D
:1016E000FEE7704770477047FFF74CB930B593B0CD
:1016F00028216846FEF71DFD14210AA8FEF719FDF2
:10170000002401200F9402250490009510200590DC
:10171000109411941294CDE9075468460994FFF788
:101720008FFB0F20CDE90A056802CDE90C400021AE
:101730000AA80E94FFF798FAA80311900F950FA826
:10174000FFF71CFA13B030BD0D48016841F00101EC
:10175000016041680B4A1140416001680A4A11402A
:101760000160016821F480210160416821F4FE01DB
:1017700041604FF41F0181600449C0030860704755
:10178000001002400000FFF8FFFFF6FE08ED00E049
:10179000F0B50268164B174C174D4FF08047984232
:1017A00005D0B84203D0A04201D0A84203D122F014
:1017B00070064A683243984205D0B84203D0A0422E
:1017C00001D0A84203D122F44074CA6822434C6974
:1017D00022F08002224302608A68C2620A68826242
:1017E000984201D10969016301214161F0BD000006
:1017F000002C0140000400400008004010B584683F
:1018000042EA032224F47F440A432243826010BD4B
:10181000826822F070020A4342F00701816070473B
:1018200010B5036A046A24F001040462846924F098
:10183000F00444EA021423F00A020A4384610262BB
:1018400010BD10B5036A23F0100303628369046AB4
:1018500023F4704343EA023224F0A00343EA011167
:101860008261016210BD10B5406A0021C185C1844A
:10187000FFF757FD10BD0168CA6822F49072CA6074
:1018800001684A6922F001024A61202180F83A1079
:10189000704710B590F83A10222901D0022010BDEF
:1018A0008168B1F5805F11D00169002901681FD0FE
:1018B000496801F07F03816A4A1C82620B70C18D06
:1018C000491E0904090CC18518D02BE00269816A00
:1018D000002A0268526805D0D2B20A80816A491C87
:1018E0008162ECE7C2F308020A80816A891CF7E78B
:1018F0004A68816A4B1C83620A70E0E70168CA6823
:1019000022F02002CA600168CA6822F48072CA60AC
:1019100001684A6922F001024A61202180F83A10E8
:10192000FFF7FAFD002010BD2DE9F04104460068E4
:101930000169E26821F44051114301612169A06805
:101940000843616908432168CA6841F20C639A43FD
:101950000243CA6020684169A26921F440711143C1
:1019600041611E49206864253226884202D1FFF772
:1019700021FA01E0FFF70EFA00EBC00101EB0011C4
:1019800060686FF018078000B1FBF0F2B2FBF5F26F
:10199000B1FBF0F37A4303EB8202B1FBF0F306EB09
:1019A0000212B2FBF5F2B3FBF5F302F0F00202EB28
:1019B0000312B1FBF0F3B1FBF0F0B0FBF5F07843AC
:1019C00003EB800006EB0010B0FBF5F0216800F09F
:1019D0000F0010448860BDE8F0810000003801402D
:1019E00090F83910212901D0022070478168B1F5A3
:1019F000805F016A0BD04A1C02620268097851605C
:101A0000C18C491E0904090CC1840ED017E0098855
:101A10000268C1F30801516001690029016A02D01E
:101A2000491C0162ECE7891CFBE70168CA6822F0E7
:101A30008002CA600068C16841F04001C1600020B6
:101A400070472DE9F041984617460E460446069D1C
:101A50001DE0681C1BD02DB1FEF78EFFA0EB080027
:101A6000A84214D92068C16821F4D071C1602068EF
:101A7000416921F001014161202084F8390084F896
:101A80003A00002084F838000320BDE8F081206887
:101A9000006836EA000004D00020B842D9D0002007
:101AA000F3E70120F9E700000148FFF73BBC000025
:101AB00080000020FEE700000FB4084B10B504A919
:101AC00002AA039800F02CF8044602A9002000F0B6
:101AD000D1F8204610BC5DF814FB0000751C00080E
:101AE0000907090E002804DB00F1E02080F800144B
:101AF000704700F00F0000F1E02080F8141D7047DF
:101B000002E008C8121F08C1002AFAD170477047C6
:101B1000002001E001C1121F002AFBD17047000024
:101B20002DE9FF4F89B09B460446002506E0252895
:101B30000BD05A460B999047641C6D1C20780028E6
:101B4000F5D10DB02846BDE8F08F0027B846012238
:101B5000474900E0074314F8013F203B02FA03F035
:101B60000842F7D120782E2819D114F8010F47F038
:101B700004072A280ED06FF02F022078A0F1300140
:101B800009290CD808EB880102EB410100EB0108A0
:101B9000641CF2E70A98641C50F8048B0A902078C1
:101BA0000028CED0642808D0692806D075281ED019
:101BB0005A460B9990476D1C58E00A994FF00A0954
:101BC00001C90A91002802DA40422D2102E03905BC
:101BD00004D52B218DF82010012103E0F90704D052
:101BE0002021F7E78A4608AE0DE00021FAE70A99BE
:101BF0004FF00A0901C90A91F7E74946FEF7A4FA2E
:101C0000303106F8011D0028F7D1ADEB060000F1D8
:101C10002009780701D44FF00108C84502DDA8EB80
:101C2000090000E000208046002706E008A85A4688
:101C3000C05D0B9990476D1C7F1C5745F6DB04E097
:101C400030205A460B9990476D1CB8F10001A8F15D
:101C50000108F5DC05E016F8010B5A460B99904790
:101C60006D1CB9F10001A9F10109F4DC641C65E700
:101C7000092801000A68531C0B60107070470000AF
:101C8000044900220B685A6209684A6A8242FCD3FE
:101C900070470000400000201CB50A208DF80500A8
:101CA000FEF778FEFFF722FDFFF7B6FCFFF794FC86
:101CB0001F491E48002308604FF41650C1E9010374
:101CC0000C20CB60C1E904308B610846CB61FFF783
:101CD000B1FBFFF7DBFC16484038FFF7A5FA154EBD
:101CE000962413487038FEF78BFC11480121703898
:101CF000FEF7EEFB20B90E487038FEF72BFB0546C9
:101D00000B487038FEF7DCFC2A460BA16846FFF74B
:101D1000D3FEC823062269460548FFF7FEFB96FB63
:101D2000F4F080B2FFF7ACFFDBE7000000380140C1
:101D30008000002040420F0025640D0A00000000D2
:101D4000000000000000000001020304060708096B
:101D50000000000001020304781D000800000020BC
:101D600010000000001B0008881D00081000002063
:101D7000B0040000101B000801000000100000006B
:081D8000000000000024F40043
:04000005080000ED02
:00000001FF
